{
  "_format": "hh-sol-artifact-1",
  "contractName": "MyEpicNFT",
  "sourceName": "contracts/MyEpicNFT.sol",
  "abi": [
    {
      "inputs": [],
      "stateMutability": "nonpayable",
      "type": "constructor"
    },
    {
      "anonymous": false,
      "inputs": [
        {
          "indexed": true,
          "internalType": "address",
          "name": "owner",
          "type": "address"
        },
        {
          "indexed": true,
          "internalType": "address",
          "name": "approved",
          "type": "address"
        },
        {
          "indexed": true,
          "internalType": "uint256",
          "name": "tokenId",
          "type": "uint256"
        }
      ],
      "name": "Approval",
      "type": "event"
    },
    {
      "anonymous": false,
      "inputs": [
        {
          "indexed": true,
          "internalType": "address",
          "name": "owner",
          "type": "address"
        },
        {
          "indexed": true,
          "internalType": "address",
          "name": "operator",
          "type": "address"
        },
        {
          "indexed": false,
          "internalType": "bool",
          "name": "approved",
          "type": "bool"
        }
      ],
      "name": "ApprovalForAll",
      "type": "event"
    },
    {
      "anonymous": false,
      "inputs": [
        {
          "indexed": false,
          "internalType": "address",
          "name": "sender",
          "type": "address"
        },
        {
          "indexed": false,
          "internalType": "uint256",
          "name": "tokenId",
          "type": "uint256"
        }
      ],
      "name": "NewEpicNFTMinted",
      "type": "event"
    },
    {
      "anonymous": false,
      "inputs": [
        {
          "indexed": true,
          "internalType": "address",
          "name": "from",
          "type": "address"
        },
        {
          "indexed": true,
          "internalType": "address",
          "name": "to",
          "type": "address"
        },
        {
          "indexed": true,
          "internalType": "uint256",
          "name": "tokenId",
          "type": "uint256"
        }
      ],
      "name": "Transfer",
      "type": "event"
    },
    {
      "inputs": [
        {
          "internalType": "address",
          "name": "to",
          "type": "address"
        },
        {
          "internalType": "uint256",
          "name": "tokenId",
          "type": "uint256"
        }
      ],
      "name": "approve",
      "outputs": [],
      "stateMutability": "nonpayable",
      "type": "function"
    },
    {
      "inputs": [
        {
          "internalType": "address",
          "name": "owner",
          "type": "address"
        }
      ],
      "name": "balanceOf",
      "outputs": [
        {
          "internalType": "uint256",
          "name": "",
          "type": "uint256"
        }
      ],
      "stateMutability": "view",
      "type": "function"
    },
    {
      "inputs": [
        {
          "internalType": "uint256",
          "name": "tokenId",
          "type": "uint256"
        }
      ],
      "name": "getApproved",
      "outputs": [
        {
          "internalType": "address",
          "name": "",
          "type": "address"
        }
      ],
      "stateMutability": "view",
      "type": "function"
    },
    {
      "inputs": [],
      "name": "getLastTokenId",
      "outputs": [
        {
          "internalType": "uint256",
          "name": "",
          "type": "uint256"
        }
      ],
      "stateMutability": "view",
      "type": "function"
    },
    {
      "inputs": [
        {
          "internalType": "address",
          "name": "owner",
          "type": "address"
        },
        {
          "internalType": "address",
          "name": "operator",
          "type": "address"
        }
      ],
      "name": "isApprovedForAll",
      "outputs": [
        {
          "internalType": "bool",
          "name": "",
          "type": "bool"
        }
      ],
      "stateMutability": "view",
      "type": "function"
    },
    {
      "inputs": [],
      "name": "makeAnEpicNFT",
      "outputs": [],
      "stateMutability": "nonpayable",
      "type": "function"
    },
    {
      "inputs": [],
      "name": "name",
      "outputs": [
        {
          "internalType": "string",
          "name": "",
          "type": "string"
        }
      ],
      "stateMutability": "view",
      "type": "function"
    },
    {
      "inputs": [
        {
          "internalType": "uint256",
          "name": "tokenId",
          "type": "uint256"
        }
      ],
      "name": "ownerOf",
      "outputs": [
        {
          "internalType": "address",
          "name": "",
          "type": "address"
        }
      ],
      "stateMutability": "view",
      "type": "function"
    },
    {
      "inputs": [
        {
          "internalType": "uint256",
          "name": "tokenId",
          "type": "uint256"
        }
      ],
      "name": "pickRandomFirstWord",
      "outputs": [
        {
          "internalType": "string",
          "name": "",
          "type": "string"
        }
      ],
      "stateMutability": "view",
      "type": "function"
    },
    {
      "inputs": [
        {
          "internalType": "uint256",
          "name": "tokenId",
          "type": "uint256"
        }
      ],
      "name": "pickRandomSecondWord",
      "outputs": [
        {
          "internalType": "string",
          "name": "",
          "type": "string"
        }
      ],
      "stateMutability": "view",
      "type": "function"
    },
    {
      "inputs": [
        {
          "internalType": "uint256",
          "name": "tokenId",
          "type": "uint256"
        }
      ],
      "name": "pickRandomThirdWord",
      "outputs": [
        {
          "internalType": "string",
          "name": "",
          "type": "string"
        }
      ],
      "stateMutability": "view",
      "type": "function"
    },
    {
      "inputs": [
        {
          "internalType": "address",
          "name": "from",
          "type": "address"
        },
        {
          "internalType": "address",
          "name": "to",
          "type": "address"
        },
        {
          "internalType": "uint256",
          "name": "tokenId",
          "type": "uint256"
        }
      ],
      "name": "safeTransferFrom",
      "outputs": [],
      "stateMutability": "nonpayable",
      "type": "function"
    },
    {
      "inputs": [
        {
          "internalType": "address",
          "name": "from",
          "type": "address"
        },
        {
          "internalType": "address",
          "name": "to",
          "type": "address"
        },
        {
          "internalType": "uint256",
          "name": "tokenId",
          "type": "uint256"
        },
        {
          "internalType": "bytes",
          "name": "data",
          "type": "bytes"
        }
      ],
      "name": "safeTransferFrom",
      "outputs": [],
      "stateMutability": "nonpayable",
      "type": "function"
    },
    {
      "inputs": [
        {
          "internalType": "address",
          "name": "operator",
          "type": "address"
        },
        {
          "internalType": "bool",
          "name": "approved",
          "type": "bool"
        }
      ],
      "name": "setApprovalForAll",
      "outputs": [],
      "stateMutability": "nonpayable",
      "type": "function"
    },
    {
      "inputs": [
        {
          "internalType": "bytes4",
          "name": "interfaceId",
          "type": "bytes4"
        }
      ],
      "name": "supportsInterface",
      "outputs": [
        {
          "internalType": "bool",
          "name": "",
          "type": "bool"
        }
      ],
      "stateMutability": "view",
      "type": "function"
    },
    {
      "inputs": [],
      "name": "symbol",
      "outputs": [
        {
          "internalType": "string",
          "name": "",
          "type": "string"
        }
      ],
      "stateMutability": "view",
      "type": "function"
    },
    {
      "inputs": [
        {
          "internalType": "uint256",
          "name": "tokenId",
          "type": "uint256"
        }
      ],
      "name": "tokenURI",
      "outputs": [
        {
          "internalType": "string",
          "name": "",
          "type": "string"
        }
      ],
      "stateMutability": "view",
      "type": "function"
    },
    {
      "inputs": [
        {
          "internalType": "address",
          "name": "from",
          "type": "address"
        },
        {
          "internalType": "address",
          "name": "to",
          "type": "address"
        },
        {
          "internalType": "uint256",
          "name": "tokenId",
          "type": "uint256"
        }
      ],
      "name": "transferFrom",
      "outputs": [],
      "stateMutability": "nonpayable",
      "type": "function"
    }
  ],
  "bytecode": "0x608060405260405180610160016040528061012f81526020016200419061012f913960089080519060200190620000389291906200067e565b506040518060c001604052806040518060400160405280600481526020017f457069630000000000000000000000000000000000000000000000000000000081525081526020016040518060400160405280600981526020017f46616e746173746963000000000000000000000000000000000000000000000081525081526020016040518060400160405280600581526020017f437275646500000000000000000000000000000000000000000000000000000081525081526020016040518060400160405280600581526020017f4372617a7900000000000000000000000000000000000000000000000000000081525081526020016040518060400160405280600a81526020017f4879737465726963616c0000000000000000000000000000000000000000000081525081526020016040518060400160405280601b81526020017fe38396e383ade38383e382afe38381e382a7e383bce383b3e381a700000000008152508152506009906006620001b69291906200070f565b506040518060c001604052806040518060400160405280600481526020017f4d6574610000000000000000000000000000000000000000000000000000000081525081526020016040518060400160405280600481526020017f4c6976650000000000000000000000000000000000000000000000000000000081525081526020016040518060400160405280600381526020017f506f70000000000000000000000000000000000000000000000000000000000081525081526020016040518060400160405280600481526020017f437574650000000000000000000000000000000000000000000000000000000081525081526020016040518060400160405280600581526020017f537765657400000000000000000000000000000000000000000000000000000081525081526020016040518060400160405280600381526020017f486f740000000000000000000000000000000000000000000000000000000000815250815250600a906006620003349291906200070f565b506040518060c001604052806040518060400160405280600681526020017f4b697474656e000000000000000000000000000000000000000000000000000081525081526020016040518060400160405280600581526020017f507570707900000000000000000000000000000000000000000000000000000081525081526020016040518060400160405280600681526020017f4d6f6e6b6579000000000000000000000000000000000000000000000000000081525081526020016040518060400160405280600481526020017f426972640000000000000000000000000000000000000000000000000000000081525081526020016040518060400160405280600581526020017f50616e646100000000000000000000000000000000000000000000000000000081525081526020016040518060400160405280600881526020017f456c657068616e74000000000000000000000000000000000000000000000000815250815250600b906006620004b29291906200070f565b50348015620004c057600080fd5b506040518060400160405280600981526020017f5371756172654e465400000000000000000000000000000000000000000000008152506040518060400160405280600681526020017f53515541524500000000000000000000000000000000000000000000000000008152508160009080519060200190620005459291906200067e565b5080600190805190602001906200055e9291906200067e565b505050620005ac6040518060400160405280601881526020017f54686973206973206d79204e465420636f6e74726163742e0000000000000000815250620005b260201b620011101760201c565b62000930565b6200065281604051602401620005c99190620008a7565b6040516020818303038152906040527f41304fac000000000000000000000000000000000000000000000000000000007bffffffffffffffffffffffffffffffffffffffffffffffffffffffff19166020820180517bffffffffffffffffffffffffffffffffffffffffffffffffffffffff83818316178352505050506200065560201b60201c565b50565b60008151905060006a636f6e736f6c652e6c6f679050602083016000808483855afa5050505050565b8280546200068c90620008fa565b90600052602060002090601f016020900481019282620006b05760008555620006fc565b82601f10620006cb57805160ff1916838001178555620006fc565b82800160010185558215620006fc579182015b82811115620006fb578251825591602001919060010190620006de565b5b5090506200070b919062000776565b5090565b82805482825590600052602060002090810192821562000763579160200282015b8281111562000762578251829080519060200190620007519291906200067e565b509160200191906001019062000730565b5b50905062000772919062000795565b5090565b5b808211156200079157600081600090555060010162000777565b5090565b5b80821115620007b95760008181620007af9190620007bd565b5060010162000796565b5090565b508054620007cb90620008fa565b6000825580601f10620007df575062000800565b601f016020900490600052602060002090810190620007ff919062000776565b5b50565b600081519050919050565b600082825260208201905092915050565b60005b838110156200083f57808201518184015260208101905062000822565b838111156200084f576000848401525b50505050565b6000601f19601f8301169050919050565b6000620008738262000803565b6200087f81856200080e565b9350620008918185602086016200081f565b6200089c8162000855565b840191505092915050565b60006020820190508181036000830152620008c3818462000866565b905092915050565b7f4e487b7100000000000000000000000000000000000000000000000000000000600052602260045260246000fd5b600060028204905060018216806200091357607f821691505b602082108114156200092a5762000929620008cb565b5b50919050565b61385080620009406000396000f3fe608060405234801561001057600080fd5b50600436106101165760003560e01c806383c4c00d116100a2578063b88d4fde11610071578063b88d4fde14610305578063c575757a14610321578063c87b56dd14610351578063de9d132f14610381578063e985e9c51461038b57610116565b806383c4c00d1461027d57806395d89b411461029b578063a22cb465146102b9578063b187301f146102d557610116565b806323b872dd116100e957806323b872dd146101b55780632de38d68146101d157806342842e0e146102015780636352211e1461021d57806370a082311461024d57610116565b806301ffc9a71461011b57806306fdde031461014b578063081812fc14610169578063095ea7b314610199575b600080fd5b6101356004803603810190610130919061231d565b6103bb565b6040516101429190612365565b60405180910390f35b61015361049d565b6040516101609190612419565b60405180910390f35b610183600480360381019061017e9190612471565b61052f565b60405161019091906124df565b60405180910390f35b6101b360048036038101906101ae9190612526565b610575565b005b6101cf60048036038101906101ca9190612566565b61068d565b005b6101eb60048036038101906101e69190612471565b6106ed565b6040516101f89190612419565b60405180910390f35b61021b60048036038101906102169190612566565b610863565b005b61023760048036038101906102329190612471565b610883565b60405161024491906124df565b60405180910390f35b610267600480360381019061026291906125b9565b610935565b60405161027491906125f5565b60405180910390f35b6102856109ed565b60405161029291906125f5565b60405180910390f35b6102a3610a03565b6040516102b09190612419565b60405180910390f35b6102d360048036038101906102ce919061263c565b610a95565b005b6102ef60048036038101906102ea9190612471565b610aab565b6040516102fc9190612419565b60405180910390f35b61031f600480360381019061031a91906127b1565b610ba3565b005b61033b60048036038101906103369190612471565b610c05565b6040516103489190612419565b60405180910390f35b61036b60048036038101906103669190612471565b610cfd565b6040516103789190612419565b60405180910390f35b610389610e10565b005b6103a560048036038101906103a09190612834565b61107c565b6040516103b29190612365565b60405180910390f35b60007f80ac58cd000000000000000000000000000000000000000000000000000000007bffffffffffffffffffffffffffffffffffffffffffffffffffffffff1916827bffffffffffffffffffffffffffffffffffffffffffffffffffffffff1916148061048657507f5b5e139f000000000000000000000000000000000000000000000000000000007bffffffffffffffffffffffffffffffffffffffffffffffffffffffff1916827bffffffffffffffffffffffffffffffffffffffffffffffffffffffff1916145b806104965750610495826111a9565b5b9050919050565b6060600080546104ac906128a3565b80601f01602080910402602001604051908101604052809291908181526020018280546104d8906128a3565b80156105255780601f106104fa57610100808354040283529160200191610525565b820191906000526020600020905b81548152906001019060200180831161050857829003601f168201915b5050505050905090565b600061053a82611213565b6004600083815260200190815260200160002060009054906101000a900473ffffffffffffffffffffffffffffffffffffffff169050919050565b600061058082610883565b90508073ffffffffffffffffffffffffffffffffffffffff168373ffffffffffffffffffffffffffffffffffffffff1614156105f1576040517f08c379a00000000000000000000000000000000000000000000000000000000081526004016105e890612947565b60405180910390fd5b8073ffffffffffffffffffffffffffffffffffffffff1661061061125e565b73ffffffffffffffffffffffffffffffffffffffff16148061063f575061063e8161063961125e565b61107c565b5b61067e576040517f08c379a0000000000000000000000000000000000000000000000000000000008152600401610675906129d9565b60405180910390fd5b6106888383611266565b505050565b61069e61069861125e565b8261131f565b6106dd576040517f08c379a00000000000000000000000000000000000000000000000000000000081526004016106d490612a6b565b60405180910390fd5b6106e88383836113b4565b505050565b606060006107216106fd8461161b565b60405160200161070d9190612b13565b60405160208183030381529060405261177c565b90506107626040518060400160405280600d81526020017f72616e64202d20736565643a2000000000000000000000000000000000000000815250826117af565b600980549050816107739190612b64565b90506107b46040518060400160405280601381526020017f72616e64202d20666972737420776f72643a2000000000000000000000000000815250826117af565b600981815481106107c8576107c7612b95565b5b9060005260206000200180546107dd906128a3565b80601f0160208091040260200160405190810160405280929190818152602001828054610809906128a3565b80156108565780601f1061082b57610100808354040283529160200191610856565b820191906000526020600020905b81548152906001019060200180831161083957829003601f168201915b5050505050915050919050565b61087e83838360405180602001604052806000815250610ba3565b505050565b6000806002600084815260200190815260200160002060009054906101000a900473ffffffffffffffffffffffffffffffffffffffff169050600073ffffffffffffffffffffffffffffffffffffffff168173ffffffffffffffffffffffffffffffffffffffff16141561092c576040517f08c379a000000000000000000000000000000000000000000000000000000000815260040161092390612c10565b60405180910390fd5b80915050919050565b60008073ffffffffffffffffffffffffffffffffffffffff168273ffffffffffffffffffffffffffffffffffffffff1614156109a6576040517f08c379a000000000000000000000000000000000000000000000000000000000815260040161099d90612ca2565b60405180910390fd5b600360008373ffffffffffffffffffffffffffffffffffffffff1673ffffffffffffffffffffffffffffffffffffffff168152602001908152602001600020549050919050565b6000806109fa600761184b565b90508091505090565b606060018054610a12906128a3565b80601f0160208091040260200160405190810160405280929190818152602001828054610a3e906128a3565b8015610a8b5780601f10610a6057610100808354040283529160200191610a8b565b820191906000526020600020905b815481529060010190602001808311610a6e57829003601f168201915b5050505050905090565b610aa7610aa061125e565b8383611859565b5050565b60606000610adf610abb8461161b565b604051602001610acb9190612d0e565b60405160208183030381529060405261177c565b9050600a8054905081610af29190612b64565b9050600a8181548110610b0857610b07612b95565b5b906000526020600020018054610b1d906128a3565b80601f0160208091040260200160405190810160405280929190818152602001828054610b49906128a3565b8015610b965780601f10610b6b57610100808354040283529160200191610b96565b820191906000526020600020905b815481529060010190602001808311610b7957829003601f168201915b5050505050915050919050565b610bb4610bae61125e565b8361131f565b610bf3576040517f08c379a0000000000000000000000000000000000000000000000000000000008152600401610bea90612a6b565b60405180910390fd5b610bff848484846119c6565b50505050565b60606000610c39610c158461161b565b604051602001610c259190612d7c565b60405160208183030381529060405261177c565b9050600b8054905081610c4c9190612b64565b9050600b8181548110610c6257610c61612b95565b5b906000526020600020018054610c77906128a3565b80601f0160208091040260200160405190810160405280929190818152602001828054610ca3906128a3565b8015610cf05780601f10610cc557610100808354040283529160200191610cf0565b820191906000526020600020905b815481529060010190602001808311610cd357829003601f168201915b5050505050915050919050565b6060610d0882611213565b6000600660008481526020019081526020016000208054610d28906128a3565b80601f0160208091040260200160405190810160405280929190818152602001828054610d54906128a3565b8015610da15780601f10610d7657610100808354040283529160200191610da1565b820191906000526020600020905b815481529060010190602001808311610d8457829003601f168201915b505050505090506000610db2611a22565b9050600081511415610dc8578192505050610e0b565b600082511115610dfd578082604051602001610de5929190612d9e565b60405160208183030381529060405292505050610e0b565b610e0684611a39565b925050505b919050565b6000610e1c600761184b565b90506000610e29826106ed565b90506000610e3683610aab565b90506000610e4384610c05565b90506000838383604051602001610e5c93929190612dc2565b60405160208183030381529060405290506000600882604051602001610e83929190612ed3565b6040516020818303038152906040529050610ed26040518060400160405280601581526020017f0a2d2d2d2d2d205356472064617461202d2d2d2d2d0000000000000000000000815250611110565b610edb81611110565b610f196040518060400160405280601581526020017f2d2d2d2d2d2d2d2d2d2d2d2d2d2d2d2d2d2d2d2d0a0000000000000000000000815250611110565b6000610f4d83610f2884611aa1565b604051602001610f39929190613058565b604051602081830303815290604052611aa1565b9050600081604051602001610f6291906130e9565b6040516020818303038152906040529050610fb16040518060400160405280601581526020017f0a2d2d2d2d2d20546f6b656e20555249202d2d2d2d0000000000000000000000815250611110565b610fba81611110565b610ff86040518060400160405280601581526020017f2d2d2d2d2d2d2d2d2d2d2d2d2d2d2d2d2d2d2d2d0a0000000000000000000000815250611110565b6110023389611c39565b61100c8882611c57565b61102f6040518060600160405280602581526020016137b6602591398933611ccb565b6110396007611d6a565b7febb98688741ffa4c7589bf325de30cf7becb63de567842e1ccdb6cb949fdc82c338960405161106a92919061310b565b60405180910390a15050505050505050565b6000600560008473ffffffffffffffffffffffffffffffffffffffff1673ffffffffffffffffffffffffffffffffffffffff16815260200190815260200160002060008373ffffffffffffffffffffffffffffffffffffffff1673ffffffffffffffffffffffffffffffffffffffff16815260200190815260200160002060009054906101000a900460ff16905092915050565b6111a6816040516024016111249190612419565b6040516020818303038152906040527f41304fac000000000000000000000000000000000000000000000000000000007bffffffffffffffffffffffffffffffffffffffffffffffffffffffff19166020820180517bffffffffffffffffffffffffffffffffffffffffffffffffffffffff8381831617835250505050611d80565b50565b60007f01ffc9a7000000000000000000000000000000000000000000000000000000007bffffffffffffffffffffffffffffffffffffffffffffffffffffffff1916827bffffffffffffffffffffffffffffffffffffffffffffffffffffffff1916149050919050565b61121c81611da9565b61125b576040517f08c379a000000000000000000000000000000000000000000000000000000000815260040161125290612c10565b60405180910390fd5b50565b600033905090565b816004600083815260200190815260200160002060006101000a81548173ffffffffffffffffffffffffffffffffffffffff021916908373ffffffffffffffffffffffffffffffffffffffff160217905550808273ffffffffffffffffffffffffffffffffffffffff166112d983610883565b73ffffffffffffffffffffffffffffffffffffffff167f8c5be1e5ebec7d5bd14f71427d1e84f3dd0314c0f7b2291e5b200ac8c7c3b92560405160405180910390a45050565b60008061132b83610883565b90508073ffffffffffffffffffffffffffffffffffffffff168473ffffffffffffffffffffffffffffffffffffffff16148061136d575061136c818561107c565b5b806113ab57508373ffffffffffffffffffffffffffffffffffffffff166113938461052f565b73ffffffffffffffffffffffffffffffffffffffff16145b91505092915050565b8273ffffffffffffffffffffffffffffffffffffffff166113d482610883565b73ffffffffffffffffffffffffffffffffffffffff161461142a576040517f08c379a0000000000000000000000000000000000000000000000000000000008152600401611421906131a6565b60405180910390fd5b600073ffffffffffffffffffffffffffffffffffffffff168273ffffffffffffffffffffffffffffffffffffffff16141561149a576040517f08c379a000000000000000000000000000000000000000000000000000000000815260040161149190613238565b60405180910390fd5b6114a5838383611e15565b6114b0600082611266565b6001600360008573ffffffffffffffffffffffffffffffffffffffff1673ffffffffffffffffffffffffffffffffffffffff16815260200190815260200160002060008282546115009190613287565b925050819055506001600360008473ffffffffffffffffffffffffffffffffffffffff1673ffffffffffffffffffffffffffffffffffffffff168152602001908152602001600020600082825461155791906132bb565b92505081905550816002600083815260200190815260200160002060006101000a81548173ffffffffffffffffffffffffffffffffffffffff021916908373ffffffffffffffffffffffffffffffffffffffff160217905550808273ffffffffffffffffffffffffffffffffffffffff168473ffffffffffffffffffffffffffffffffffffffff167fddf252ad1be2c89b69c2b068fc378daa952ba7f163c4a11628f55a4df523b3ef60405160405180910390a4611616838383611e1a565b505050565b60606000821415611663576040518060400160405280600181526020017f30000000000000000000000000000000000000000000000000000000000000008152509050611777565b600082905060005b6000821461169557808061167e90613311565b915050600a8261168e919061335a565b915061166b565b60008167ffffffffffffffff8111156116b1576116b0612686565b5b6040519080825280601f01601f1916602001820160405280156116e35781602001600182028036833780820191505090505b5090505b60008514611770576001826116fc9190613287565b9150600a8561170b9190612b64565b603061171791906132bb565b60f81b81838151811061172d5761172c612b95565b5b60200101907effffffffffffffffffffffffffffffffffffffffffffffffffffffffffffff1916908160001a905350600a85611769919061335a565b94506116e7565b8093505050505b919050565b60008160405160200161178f919061338b565b6040516020818303038152906040528051906020012060001c9050919050565b61184782826040516024016117c59291906133a2565b6040516020818303038152906040527f9710a9d0000000000000000000000000000000000000000000000000000000007bffffffffffffffffffffffffffffffffffffffffffffffffffffffff19166020820180517bffffffffffffffffffffffffffffffffffffffffffffffffffffffff8381831617835250505050611d80565b5050565b600081600001549050919050565b8173ffffffffffffffffffffffffffffffffffffffff168373ffffffffffffffffffffffffffffffffffffffff1614156118c8576040517f08c379a00000000000000000000000000000000000000000000000000000000081526004016118bf9061341e565b60405180910390fd5b80600560008573ffffffffffffffffffffffffffffffffffffffff1673ffffffffffffffffffffffffffffffffffffffff16815260200190815260200160002060008473ffffffffffffffffffffffffffffffffffffffff1673ffffffffffffffffffffffffffffffffffffffff16815260200190815260200160002060006101000a81548160ff0219169083151502179055508173ffffffffffffffffffffffffffffffffffffffff168373ffffffffffffffffffffffffffffffffffffffff167f17307eab39ab6107e8899845ad3d59bd9653f200f220920489ca2b5937696c31836040516119b99190612365565b60405180910390a3505050565b6119d18484846113b4565b6119dd84848484611e1f565b611a1c576040517f08c379a0000000000000000000000000000000000000000000000000000000008152600401611a13906134b0565b60405180910390fd5b50505050565b606060405180602001604052806000815250905090565b6060611a4482611213565b6000611a4e611a22565b90506000815111611a6e5760405180602001604052806000815250611a99565b80611a788461161b565b604051602001611a89929190612d9e565b6040516020818303038152906040525b915050919050565b60606000825190506000811415611aca5760405180602001604052806000815250915050611c34565b60006003600283611adb91906132bb565b611ae5919061335a565b6004611af191906134d0565b90506000602082611b0291906132bb565b67ffffffffffffffff811115611b1b57611b1a612686565b5b6040519080825280601f01601f191660200182016040528015611b4d5781602001600182028036833780820191505090505b50905060006040518060600160405280604081526020016137db604091399050600181016020830160005b86811015611bf15760038101905062ffffff818a015116603f8160121c168401518060081b905060ff603f83600c1c1686015116810190508060081b905060ff603f8360061c1686015116810190508060081b905060ff603f831686015116810190508060e01b90508084526004840193505050611b78565b506003860660018114611c0b5760028114611c1b57611c26565b613d3d60f01b6002830352611c26565b603d60f81b60018303525b508484525050819450505050505b919050565b611c53828260405180602001604052806000815250611fb6565b5050565b611c6082611da9565b611c9f576040517f08c379a0000000000000000000000000000000000000000000000000000000008152600401611c969061359c565b60405180910390fd5b80600660008481526020019081526020016000209080519060200190611cc692919061220e565b505050565b611d65838383604051602401611ce3939291906135bc565b6040516020818303038152906040527fe3849f79000000000000000000000000000000000000000000000000000000007bffffffffffffffffffffffffffffffffffffffffffffffffffffffff19166020820180517bffffffffffffffffffffffffffffffffffffffffffffffffffffffff8381831617835250505050611d80565b505050565b6001816000016000828254019250508190555050565b60008151905060006a636f6e736f6c652e6c6f679050602083016000808483855afa5050505050565b60008073ffffffffffffffffffffffffffffffffffffffff166002600084815260200190815260200160002060009054906101000a900473ffffffffffffffffffffffffffffffffffffffff1673ffffffffffffffffffffffffffffffffffffffff1614159050919050565b505050565b505050565b6000611e408473ffffffffffffffffffffffffffffffffffffffff16612011565b15611fa9578373ffffffffffffffffffffffffffffffffffffffff1663150b7a02611e6961125e565b8786866040518563ffffffff1660e01b8152600401611e8b949392919061364f565b602060405180830381600087803b158015611ea557600080fd5b505af1925050508015611ed657506040513d601f19601f82011682018060405250810190611ed391906136b0565b60015b611f59573d8060008114611f06576040519150601f19603f3d011682016040523d82523d6000602084013e611f0b565b606091505b50600081511415611f51576040517f08c379a0000000000000000000000000000000000000000000000000000000008152600401611f48906134b0565b60405180910390fd5b805181602001fd5b63150b7a0260e01b7bffffffffffffffffffffffffffffffffffffffffffffffffffffffff1916817bffffffffffffffffffffffffffffffffffffffffffffffffffffffff191614915050611fae565b600190505b949350505050565b611fc08383612034565b611fcd6000848484611e1f565b61200c576040517f08c379a0000000000000000000000000000000000000000000000000000000008152600401612003906134b0565b60405180910390fd5b505050565b6000808273ffffffffffffffffffffffffffffffffffffffff163b119050919050565b600073ffffffffffffffffffffffffffffffffffffffff168273ffffffffffffffffffffffffffffffffffffffff1614156120a4576040517f08c379a000000000000000000000000000000000000000000000000000000000815260040161209b90613729565b60405180910390fd5b6120ad81611da9565b156120ed576040517f08c379a00000000000000000000000000000000000000000000000000000000081526004016120e490613795565b60405180910390fd5b6120f960008383611e15565b6001600360008473ffffffffffffffffffffffffffffffffffffffff1673ffffffffffffffffffffffffffffffffffffffff168152602001908152602001600020600082825461214991906132bb565b92505081905550816002600083815260200190815260200160002060006101000a81548173ffffffffffffffffffffffffffffffffffffffff021916908373ffffffffffffffffffffffffffffffffffffffff160217905550808273ffffffffffffffffffffffffffffffffffffffff16600073ffffffffffffffffffffffffffffffffffffffff167fddf252ad1be2c89b69c2b068fc378daa952ba7f163c4a11628f55a4df523b3ef60405160405180910390a461220a60008383611e1a565b5050565b82805461221a906128a3565b90600052602060002090601f01602090048101928261223c5760008555612283565b82601f1061225557805160ff1916838001178555612283565b82800160010185558215612283579182015b82811115612282578251825591602001919060010190612267565b5b5090506122909190612294565b5090565b5b808211156122ad576000816000905550600101612295565b5090565b6000604051905090565b600080fd5b600080fd5b60007fffffffff0000000000000000000000000000000000000000000000000000000082169050919050565b6122fa816122c5565b811461230557600080fd5b50565b600081359050612317816122f1565b92915050565b600060208284031215612333576123326122bb565b5b600061234184828501612308565b91505092915050565b60008115159050919050565b61235f8161234a565b82525050565b600060208201905061237a6000830184612356565b92915050565b600081519050919050565b600082825260208201905092915050565b60005b838110156123ba57808201518184015260208101905061239f565b838111156123c9576000848401525b50505050565b6000601f19601f8301169050919050565b60006123eb82612380565b6123f5818561238b565b935061240581856020860161239c565b61240e816123cf565b840191505092915050565b6000602082019050818103600083015261243381846123e0565b905092915050565b6000819050919050565b61244e8161243b565b811461245957600080fd5b50565b60008135905061246b81612445565b92915050565b600060208284031215612487576124866122bb565b5b60006124958482850161245c565b91505092915050565b600073ffffffffffffffffffffffffffffffffffffffff82169050919050565b60006124c98261249e565b9050919050565b6124d9816124be565b82525050565b60006020820190506124f460008301846124d0565b92915050565b612503816124be565b811461250e57600080fd5b50565b600081359050612520816124fa565b92915050565b6000806040838503121561253d5761253c6122bb565b5b600061254b85828601612511565b925050602061255c8582860161245c565b9150509250929050565b60008060006060848603121561257f5761257e6122bb565b5b600061258d86828701612511565b935050602061259e86828701612511565b92505060406125af8682870161245c565b9150509250925092565b6000602082840312156125cf576125ce6122bb565b5b60006125dd84828501612511565b91505092915050565b6125ef8161243b565b82525050565b600060208201905061260a60008301846125e6565b92915050565b6126198161234a565b811461262457600080fd5b50565b60008135905061263681612610565b92915050565b60008060408385031215612653576126526122bb565b5b600061266185828601612511565b925050602061267285828601612627565b9150509250929050565b600080fd5b600080fd5b7f4e487b7100000000000000000000000000000000000000000000000000000000600052604160045260246000fd5b6126be826123cf565b810181811067ffffffffffffffff821117156126dd576126dc612686565b5b80604052505050565b60006126f06122b1565b90506126fc82826126b5565b919050565b600067ffffffffffffffff82111561271c5761271b612686565b5b612725826123cf565b9050602081019050919050565b82818337600083830152505050565b600061275461274f84612701565b6126e6565b9050828152602081018484840111156127705761276f612681565b5b61277b848285612732565b509392505050565b600082601f8301126127985761279761267c565b5b81356127a8848260208601612741565b91505092915050565b600080600080608085870312156127cb576127ca6122bb565b5b60006127d987828801612511565b94505060206127ea87828801612511565b93505060406127fb8782880161245c565b925050606085013567ffffffffffffffff81111561281c5761281b6122c0565b5b61282887828801612783565b91505092959194509250565b6000806040838503121561284b5761284a6122bb565b5b600061285985828601612511565b925050602061286a85828601612511565b9150509250929050565b7f4e487b7100000000000000000000000000000000000000000000000000000000600052602260045260246000fd5b600060028204905060018216806128bb57607f821691505b602082108114156128cf576128ce612874565b5b50919050565b7f4552433732313a20617070726f76616c20746f2063757272656e74206f776e6560008201527f7200000000000000000000000000000000000000000000000000000000000000602082015250565b600061293160218361238b565b915061293c826128d5565b604082019050919050565b6000602082019050818103600083015261296081612924565b9050919050565b7f4552433732313a20617070726f76652063616c6c6572206973206e6f7420746f60008201527f6b656e206f776e6572206e6f7220617070726f76656420666f7220616c6c0000602082015250565b60006129c3603e8361238b565b91506129ce82612967565b604082019050919050565b600060208201905081810360008301526129f2816129b6565b9050919050565b7f4552433732313a2063616c6c6572206973206e6f7420746f6b656e206f776e6560008201527f72206e6f7220617070726f766564000000000000000000000000000000000000602082015250565b6000612a55602e8361238b565b9150612a60826129f9565b604082019050919050565b60006020820190508181036000830152612a8481612a48565b9050919050565b600081905092915050565b7f46495253545f574f524400000000000000000000000000000000000000000000600082015250565b6000612acc600a83612a8b565b9150612ad782612a96565b600a82019050919050565b6000612aed82612380565b612af78185612a8b565b9350612b0781856020860161239c565b80840191505092915050565b6000612b1e82612abf565b9150612b2a8284612ae2565b915081905092915050565b7f4e487b7100000000000000000000000000000000000000000000000000000000600052601260045260246000fd5b6000612b6f8261243b565b9150612b7a8361243b565b925082612b8a57612b89612b35565b5b828206905092915050565b7f4e487b7100000000000000000000000000000000000000000000000000000000600052603260045260246000fd5b7f4552433732313a20696e76616c696420746f6b656e2049440000000000000000600082015250565b6000612bfa60188361238b565b9150612c0582612bc4565b602082019050919050565b60006020820190508181036000830152612c2981612bed565b9050919050565b7f4552433732313a2061646472657373207a65726f206973206e6f74206120766160008201527f6c6964206f776e65720000000000000000000000000000000000000000000000602082015250565b6000612c8c60298361238b565b9150612c9782612c30565b604082019050919050565b60006020820190508181036000830152612cbb81612c7f565b9050919050565b7f5345434f4e445f574f5244000000000000000000000000000000000000000000600082015250565b6000612cf8600b83612a8b565b9150612d0382612cc2565b600b82019050919050565b6000612d1982612ceb565b9150612d258284612ae2565b915081905092915050565b7f54484952445f574f524400000000000000000000000000000000000000000000600082015250565b6000612d66600a83612a8b565b9150612d7182612d30565b600a82019050919050565b6000612d8782612d59565b9150612d938284612ae2565b915081905092915050565b6000612daa8285612ae2565b9150612db68284612ae2565b91508190509392505050565b6000612dce8286612ae2565b9150612dda8285612ae2565b9150612de68284612ae2565b9150819050949350505050565b60008190508160005260206000209050919050565b60008154612e15816128a3565b612e1f8186612a8b565b94506001821660008114612e3a5760018114612e4b57612e7e565b60ff19831686528186019350612e7e565b612e5485612df3565b60005b83811015612e7657815481890152600182019150602081019050612e57565b838801955050505b50505092915050565b7f3c2f746578743e3c2f7376673e00000000000000000000000000000000000000600082015250565b6000612ebd600d83612a8b565b9150612ec882612e87565b600d82019050919050565b6000612edf8285612e08565b9150612eeb8284612ae2565b9150612ef682612eb0565b91508190509392505050565b7f7b226e616d65223a202200000000000000000000000000000000000000000000600082015250565b6000612f38600a83612a8b565b9150612f4382612f02565b600a82019050919050565b7f222c20226465736372697074696f6e223a20224120686967686c79206163636c60008201527f61696d656420636f6c6c656374696f6e206f6620737175617265732e222c202260208201527f696d616765223a2022646174613a696d6167652f7376672b786d6c3b6261736560408201527f36342c0000000000000000000000000000000000000000000000000000000000606082015250565b6000612ff6606383612a8b565b915061300182612f4e565b606382019050919050565b7f227d000000000000000000000000000000000000000000000000000000000000600082015250565b6000613042600283612a8b565b915061304d8261300c565b600282019050919050565b600061306382612f2b565b915061306f8285612ae2565b915061307a82612fe9565b91506130868284612ae2565b915061309182613035565b91508190509392505050565b7f646174613a6170706c69636174696f6e2f6a736f6e3b6261736536342c000000600082015250565b60006130d3601d83612a8b565b91506130de8261309d565b601d82019050919050565b60006130f4826130c6565b91506131008284612ae2565b915081905092915050565b600060408201905061312060008301856124d0565b61312d60208301846125e6565b9392505050565b7f4552433732313a207472616e736665722066726f6d20696e636f72726563742060008201527f6f776e6572000000000000000000000000000000000000000000000000000000602082015250565b600061319060258361238b565b915061319b82613134565b604082019050919050565b600060208201905081810360008301526131bf81613183565b9050919050565b7f4552433732313a207472616e7366657220746f20746865207a65726f2061646460008201527f7265737300000000000000000000000000000000000000000000000000000000602082015250565b600061322260248361238b565b915061322d826131c6565b604082019050919050565b6000602082019050818103600083015261325181613215565b9050919050565b7f4e487b7100000000000000000000000000000000000000000000000000000000600052601160045260246000fd5b60006132928261243b565b915061329d8361243b565b9250828210156132b0576132af613258565b5b828203905092915050565b60006132c68261243b565b91506132d18361243b565b9250827fffffffffffffffffffffffffffffffffffffffffffffffffffffffffffffffff0382111561330657613305613258565b5b828201905092915050565b600061331c8261243b565b91507fffffffffffffffffffffffffffffffffffffffffffffffffffffffffffffffff82141561334f5761334e613258565b5b600182019050919050565b60006133658261243b565b91506133708361243b565b9250826133805761337f612b35565b5b828204905092915050565b60006133978284612ae2565b915081905092915050565b600060408201905081810360008301526133bc81856123e0565b90506133cb60208301846125e6565b9392505050565b7f4552433732313a20617070726f766520746f2063616c6c657200000000000000600082015250565b600061340860198361238b565b9150613413826133d2565b602082019050919050565b60006020820190508181036000830152613437816133fb565b9050919050565b7f4552433732313a207472616e7366657220746f206e6f6e20455243373231526560008201527f63656976657220696d706c656d656e7465720000000000000000000000000000602082015250565b600061349a60328361238b565b91506134a58261343e565b604082019050919050565b600060208201905081810360008301526134c98161348d565b9050919050565b60006134db8261243b565b91506134e68361243b565b9250817fffffffffffffffffffffffffffffffffffffffffffffffffffffffffffffffff048311821515161561351f5761351e613258565b5b828202905092915050565b7f45524337323155524953746f726167653a2055524920736574206f66206e6f6e60008201527f6578697374656e7420746f6b656e000000000000000000000000000000000000602082015250565b6000613586602e8361238b565b91506135918261352a565b604082019050919050565b600060208201905081810360008301526135b581613579565b9050919050565b600060608201905081810360008301526135d681866123e0565b90506135e560208301856125e6565b6135f260408301846124d0565b949350505050565b600081519050919050565b600082825260208201905092915050565b6000613621826135fa565b61362b8185613605565b935061363b81856020860161239c565b613644816123cf565b840191505092915050565b600060808201905061366460008301876124d0565b61367160208301866124d0565b61367e60408301856125e6565b81810360608301526136908184613616565b905095945050505050565b6000815190506136aa816122f1565b92915050565b6000602082840312156136c6576136c56122bb565b5b60006136d48482850161369b565b91505092915050565b7f4552433732313a206d696e7420746f20746865207a65726f2061646472657373600082015250565b600061371360208361238b565b915061371e826136dd565b602082019050919050565b6000602082019050818103600083015261374281613706565b9050919050565b7f4552433732313a20746f6b656e20616c7265616479206d696e74656400000000600082015250565b600061377f601c8361238b565b915061378a82613749565b602082019050919050565b600060208201905081810360008301526137ae81613772565b905091905056fe416e204e465420772f20494420257320686173206265656e206d696e74656420746f2025734142434445464748494a4b4c4d4e4f505152535455565758595a6162636465666768696a6b6c6d6e6f707172737475767778797a303132333435363738392b2fa2646970667358221220ecae83ae4c2210e37398a83a1db36417ae072581b66c75ee0f72c3f230f8987164736f6c634300080900333c73766720786d6c6e733d27687474703a2f2f7777772e77332e6f72672f323030302f73766727207072657365727665417370656374526174696f3d27784d696e594d696e206d656574272076696577426f783d273020302033353020333530273e3c7374796c653e2e62617365207b2066696c6c3a2077686974653b20666f6e742d66616d696c793a2073657269663b20666f6e742d73697a653a20323470783b207d3c2f7374796c653e3c726563742077696474683d273130302527206865696768743d2731303025272066696c6c3d27626c61636b27202f3e3c7465787420783d273530252720793d273530252720636c6173733d27626173652720646f6d696e616e742d626173656c696e653d276d6964646c652720746578742d616e63686f723d276d6964646c65273e",
  "linkReferences": {},
  "deployedLinkReferences": {}
}